:0300000002004CAF
:200008000000E2FBEAF2802C0000E0FBEAF08024E6B50202EBF62200E2B50202EBF22200DE
:20002800E0B50202EBF02230F6E0A88220F5D3EAC6F582228B822230F6E6A88220F5D980EE
:01004800CFE8
:0600A5007508000200498D
:030049000203D7D8
:2000AB0075820122C293C297C296C295C294D292C292D295D292C29202029EC293C297C27F
:2000CB0096C295C294D292C292D296A2009295A2019294D292C29202029EC293C297C296C0
:2000EB00C295C294D292C292D297A2029296A2039295A2049294D292C29202029EC293C252
:20010B0097C296C295D294D292C292A2059297A2069296D292C29202029EC297C296D2955E
:20012B00C294C293D292C29212029ED292C292D297D292C29202029EAF82C293D2977513AD
:20014B00068F82C00712025F9296D0077513058F82C00712025F9295D0077513048F82C011
:20016B000712025F9294D007D292C2927513038F82C00712025F9297D0077513028F82C014
:20018B000712025F9296D0077513018F82C00712025F9295D0077513008F8212025F9294D7
:2001AB00D292C29202029EAF82D2937513078F82C00712025F9297D0077513068F82C00704
:2001CB0012025F9296D0077513058F82C00712025F9295D0077513048F82C00712025F9263
:2001EB0094D007D292C2927513038F82C00712025F9297D0077513028F82C00712025F9294
:20020B0096D0077513018F82C00712025F9295D0077513008F8212025F9294D292C29202A8
:20022B00029EAE82AF837C007D00EC2EF582ED3FF583E493FB601C8B82C007C006C005C076
:20024B00041201B2D004D005D006D0070CBC00DA0D80D722AF828513F005F0EF8002C31357
:20026B00D5F0FB540124FF22AE82AF83E5092EFCE50A3FFDC3EC9EED9F4008EC9509ED9547
:20028B000A500E12031A90075312022D12029ED322C3227F32DFFE22AE82AF838E048F05CD
:2002AB00EE4F70067582300201B27F00EC4D603BEF240BF90F75130A7514008C828D83C032
:2002CB0007C005C004C001120706AB82D001D004D00574302BF775130A7514008C828D83FD
:2002EB001206C0AC82AD83D00780C18F067F00EE4F601B8E05ED14240BF98782C007C00687
:20030B001201B2D006D0071EBEFF011F80E122C293C297C296C295C294D292C29212029EC5
:20032B00C297C296C295D294D292C29212029E12029E02029EC28312036BD28320D51EC297
:20034B0082120386D28220D514C2811203A1D28120D50AC2801203BCD28030D5D8C2D522D2
:20036B00208406D2D575083322208506D2D575083222208605D2D575083122208406D2D5B9
:20038B0075083622208506D2D575083522208605D2D575083422208406D2D57508392220E9
:2003AB008506D2D575083822208605D2D575083722208406D2D575082322208506D2D57527
:2003CB00083022208605D2D575082A227E007F007C007D008F118F12C007C006C005C00450
:2003EB00120125D200C2011200C6D004D005D006D007D202D203D204C007C006C005C00462
:20040B001200E512029E12031AD004D005D006D007C007C006C005C004120340D004D0058F
:20042B00D006D007E50860E9E512600302051F74D0250840030204F6E50824C6500302046E
:20044B00F68E138F1490000AC007C006C005C0041206E9A8087900E824D0F509E934FFF592
:20046B000A120273D004D005D006D007500F12031A90075312022D12029E0206C074FB25C3
:20048B0011408EEE9499EF9419400CBE9933BF1930E50824CA402A8E138F1490000AC005F5
:2004AB00C0041206E9A882A983D004D005AA087B00EA24D0FAEB34FFFBEA28FEEB39FF809C
:2004CB000F12031A90075312022D12029E0206C0850882C007C006C005C0041201B2D00470
:2004EB00D005D006D007051102041C742AB50802800302041C75120175110075822BC0073E
:20050B00C006C005C0041201B2D004D005D006D00702041C7401B51202800302064774D0F0
:20052B00250840030205E9E50824C650030205E98C138D1490000AC007C006C005C0041234
:20054B0006E9AA087B00EA24D0F509EB34FFF50A120273D004D005D006D007500F12031A10
:20056B0090075312022D12029E0206C074FB2511500302041CC3EC9499ED9419400CBC999A
:20058B0033BD1930E50824CA402A8C138D1490000AC007C0061206E9AA82AB83D006D00763
:2005AB00A8087900E824D0F8E934FFF9E82AFCE93BFD800F12031A90075312022D12029E54
:2005CB000206C0850882C007C006C005C0041201B2D004D005D006D007051102041C742339
:2005EB00B50802800302041C8C098D0A8E828F83C007C006C005C004120273D004D005D028
:20060B0006D007500612031A0206C0EC2EFAED3FFB75120275823DC007C006C005C004C0D7
:20062B0003C0021201B2D002D0038A828B831202A3D004D005D006D00702041C7402B512FA
:20064B0002800302041C7E007F007C007D008F118F12C007C006C005C00412031A8508825D
:20066B001201B28508821201B28508821201B2D004D005D006D00774D02508400302041CD6
:20068B00E50824C6500302041CAA087B00EA24D0FAEB34FFFB8A068B07850882C007C00627
:1506AB00C005C0041201B2D004D005D006D00775110102041CED
:0A0753004F766572666C6F77210027
:2006C0007A10E4FBFCE58225E0F582E58333F583EB33FBEC33FCEB9513F5F0EC9514400638
:0906E000FCABF0438201DADD22DB
:06007B00E478FFF6D8FD59
:200059007900E94400601B7A0090075D780175A000E493F2A308B8000205A0D9F4DAF275E9
:02007900A0FFE6
:1D06E900E5828513F0A4C582C0F08514F0A4D0F025F0C5838513F0A42583F58322B2
:20070600E513451460467A01E51325E0F513E514334012F514E5829513E583951440030A68
:2007260080E6C3E51413F514E51313F513C3E5829513F5F0E58395144005F58385F082C323
:0D074600E51413F514E51313F513DAE122A1
:200081007800E84400600A790175A000E4F309D8FC7800E84400600C7900900001E4F0A37D
:0400A100D8FCD9FAB4
:0D004C007581201200ABE5826003020049BF
:00000001FF
