:0300000002004CAF
:200008000000E2FBEAF2802C0000E0FBEAF08024E6B50202EBF62200E2B50202EBF22200DE
:20002800E0B50202EBF02230F6E0A88220F5D3EAC6F582228B822230F6E6A88220F5D980EE
:01004800CFE8
:0600A5007508000200498D
:030049000203FEB1
:2000AB0075820122C293C297C296C295C294D292C292D295D292C29202029EC293C297C27F
:2000CB0096C295C294D292C292D296A2009295A2019294D292C29202029EC293C297C296C0
:2000EB00C295C294D292C292D297A2029296A2039295A2049294D292C29202029EC293C252
:20010B0097C296C295D294D292C292A2059297A2069296D292C29202029EC297C296D2955E
:20012B00C294C293D292C29212029ED292C292D297D292C29202029EAF82C293D2977513AD
:20014B00068F82C00712025F9296D0077513058F82C00712025F9295D0077513048F82C011
:20016B000712025F9294D007D292C2927513038F82C00712025F9297D0077513028F82C014
:20018B000712025F9296D0077513018F82C00712025F9295D0077513008F8212025F9294D7
:2001AB00D292C29202029EAF82D2937513078F82C00712025F9297D0077513068F82C00704
:2001CB0012025F9296D0077513058F82C00712025F9295D0077513048F82C00712025F9263
:2001EB0094D007D292C2927513038F82C00712025F9297D0077513028F82C00712025F9294
:20020B0096D0077513018F82C00712025F9295D0077513008F8212025F9294D292C29202A8
:20022B00029EAE82AF837C007D00EC2EF582ED3FF583E493FB601C8B82C007C006C005C076
:20024B00041201B2D004D005D006D0070CBC00DA0D80D722AF828513F005F0EF8002C31357
:20026B00D5F0FB540124FF22AE82AF83E5092EFCE50A3FFDC3EC9EED9F4008EC9509ED9547
:20028B000A500E12032490075B12022D12029ED322C3227EF47F01001EBEFF011FEE4F7059
:2002AB00F622AE82AF838E048F05EE4F70067582300201B27F00EC4D603BEF240BF90F7516
:2002CB00130A7514008C828D83C007C005C004C00112070EAB82D001D004D00574302BF7AA
:2002EB0075130A7514008C828D831206C8AC82AD83D00780C18F067F00EE4F601B8E05ED18
:20030B0014240BF98782C007C0061201B2D006D0071EBEFF011F80E122C293C297C296C248
:20032B0095C294D292C29212029EC297C296C295D294D292C29212029E12029E02029E3001
:20034B00840630850320860512029E80F27F14C00712029ED007DFF722C283120392D28365
:20036B0020D51EC2821203ADD28220D514C2811203C8D28120D50AC2801203E3D28030D5F9
:20038B00D812034AC2D522208406D2D575083322208506D2D575083222208605D2D575084D
:2003AB003122208406D2D575083622208506D2D575083522208605D2D575083422208406C4
:2003CB00D2D575083922208506D2D575083822208605D2D575083722208406D2D575082351
:2003EB0022208506D2D575083022208605D2D575082A227E007F007C007D008F118F12C09D
:20040B0007C006C005C004120125D200C2011200C6D004D005D006D007D202D203D204C041
:20042B0007C006C005C0041200E512029E120324D004D005D006D007C007C006C005C0040D
:20044B00120364D004D005D006D007E50860E9E512600302054374D02508400302051AE52E
:20046B000824C6500302051A8E138F1490000AC007C006C005C0041206F1A8087900E824D9
:20048B00D0F509E934FFF50A120273D004D005D006D007500F12032490075B12022D1202AC
:2004AB009E0206C874FB2511408EEE9499EF9419400CBE9933BF1930E50824CA402A8E13D5
:2004CB008F1490000AC005C0041206F1A882A983D004D005AA087B00EA24D0FAEB34FFFB25
:2004EB00EA28FEEB39FF800C12032490075B12022D0206C8850882C007C006C005C00412BF
:20050B0001B2D004D005D006D0070511020443742AB50802800302044375120175110075BC
:20052B00822BC007C006C005C0041201B2D004D005D006D0070204437401B51202800302C6
:20054B00066574D025084003020607E50824C650030206078C138D1490000AC007C006C002
:20056B0005C0041206F1AA087B00EA24D0F509EB34FFF50A120273D004D005D006D007504B
:20058B000C12032490075B12022D0206C874FB25115003020443C3EC9499ED9419400CBC49
:2005AB009933BD1930E50824CA402A8C138D1490000AC007C0061206F1AA82AB83D006D0A9
:2005CB0007A8087900E824D0F8E934FFF9E82AFCE93BFD800C12032490075B12022D0206C8
:2005EB00C8850882C007C006C005C0041201B2D004D005D006D00705110204437423B50835
:20060B000280030204438C098D0A8E828F83C007C006C005C004120273D004D005D006D0C7
:20062B000750061203240206C8EC2EFAED3FFB75120275823DC007C006C005C004C003C0B8
:20064B00021201B2D002D0038A828B831202ADD004D005D006D0070204437402B5120280EA
:20066B00030204437E007F007C007D008F118F12C007C006C005C004120324D004D005D024
:20068B0006D00774D025084003020443E50824C65003020443AA087B00EA24D0FEEB34FFDB
:1D06AB00FF850882C007C006C005C0041201B2D004D005D006D00775110102044323
:0A075B004F766572666C6F7721001F
:2006C8007A10E4FBFCE58225E0F582E58333F583EB33FBEC33FCEB9513F5F0EC9514400630
:0906E800FCABF0438201DADD22D3
:06007B00E478FFF6D8FD59
:200059007900E94400601B7A00900765780175A000E493F2A308B8000205A0D9F4DAF275E1
:02007900A0FFE6
:1D06F100E5828513F0A4C582C0F08514F0A4D0F025F0C5838513F0A42583F58322AA
:20070E00E513451460467A01E51325E0F513E514334012F514E5829513E583951440030A60
:20072E0080E6C3E51413F514E51313F513C3E5829513F5F0E58395144005F58385F082C31B
:0D074E00E51413F514E51313F513DAE12299
:200081007800E84400600A790175A000E4F309D8FC7800E84400600C7900900001E4F0A37D
:0400A100D8FCD9FAB4
:0D004C007581201200ABE5826003020049BF
:00000001FF
