:0600000002008602042E3E
:03000B000203DE0F
:0300130002049450
:200018000000E2FBEAF2802C0000E0FBEAF08024E6B50202EBF62200E2B50202EBF22200CE
:20003800E0B50202EBF02230F6E0A88220F5D3EAC6F582228B822230F6E6A88220F5D980DE
:01005800CFD8
:2000DF00750800750900750A00750B01750C01750D00750E00750F00751000751100D2001E
:0500FF00D201020059CE
:0300590002088F0B
:20010400758201227EF47F01001EBEFF011FEE4F70F622AF828513F005F0EF8002C313D545
:20012400F0FB540124FF22C293C297C296D295C294D292C292120108D292C292D297D2921B
:20014400C292020108C293C297C296C295C294D292C292C297D296D295C294D292C2920299
:200164000108C293C297C296C295C294D292C292D297D296C295C294D292C292020108C204
:2001840093C297C296C295C294D292C292D297D296D295D294D292C292020108C293C297A3
:2001A400C296C295C294D292C292C297C296C295D294D292C292120108120108020108AF68
:2001C40082430780C2937513078F82C0071201179297D0077513068F82C007120117929631
:2001E400D0077513058F82C0071201179295D0077513048F82C0071201179294D007D292A8
:20020400C2927513038F82C0071201179297D0077513028F82C0071201179296D0077513E6
:20022400018F82C0071201179295D0077513008F821201179294D292C292020108AF82D20A
:20024400937513078F82C0071201179297D0077513068F82C0071201179296D0077513055A
:200264008F82C0071201179295D0077513048F82C0071201179294D007D292C292751303AC
:200284008F82C0071201179297D0077513028F82C0071201179296D0077513018F82C0076C
:2002A4001201179295D0077513008F821201179294D292C292020108AF828F0675F00AEE43
:2002C400842430F582C007120241D00775F00AEF84AFF074302FF58202024112012B120177
:2002E400491201660201A07582001201C38508821202BC75823A1202418509821202BC750E
:20030400823A120241850A820202BC7582401201C3850B821202BC75822D120241850C827C
:200324001202BC75822D120241850D820202BC7401B50F09E51090090193FF8009E510902B
:200344000907932440FF8F820201C3E5825403B4010022AF82BF021185128212034F500453
:200364007E1D80027E1C8E8222BF0402800DBF06028008BF09028003BF0B0475821E227528
:20038400821F22E50F600122050A74C4250A5047750A00050974C42509503C750900050808
:2003A40074E825085031750800050B850D12850C82120357AF82C3EF950B5019750B01050D
:2003C4000CE50C24F3500E750C01050DE50D249C5003750D00D201D20022C021C0E0C0F094
:2003E400C082C083C007C006C005C004C003C002C001C000C0D075D000758CD8758A0005A6
:200404000E749C250E5006750E00120387D0D0D000D001D002D003D004D005D006D007D006
:2004240083D082D0F0D0E0D02132C021C0E0C0F0C082C083C007C006C005C004C003C002FF
:20044400C001C000C0D075D0007401B50F08750F00120166801B750F0175100075820F1247
:2004640001C37582541202411202EB120183120333D0D0D000D001D002D003D004D005D0D8
:2004840006D007D083D082D0F0D0E0D02102005CC021C0E0C0F0C082C083C007C006C0050F
:2004A400C004C003C002C001C000C0D075D0007402B50F08750F00120166800F750F0275D0
:2004C400100012030F120183120333D0D0D000D001D002D003D004D005D006D007D083D0A7
:2004E40082D0F0D0E0D02102005C30840630850320860512010880F27F14C007120108D0C8
:2005040007DFF722208406D2D575113322208506D2D575113222208605D2D5751131222035
:200524008406D2D575113622208506D2D575113522208605D2D575113422208406D2D57585
:20054400113922208506D2D575113822208605D2D575113722208406D2D575112322208507
:2005640006D2D575113022208605D2D575112A22751100C2D57580FFC283120508D28320E4
:20058400D51BC282120523D28220D511C28112053ED28120D507C280120559D2807580FFB0
:2005A40030D5051204EEC2D522AF82BF2A15E51070047D058008AC101CECFD3395E08D10C8
:2005C400020333BF23167405B510047D008008AC100CECFD3395E08D10020333BF30004043
:2005E40005EF24C6500122EF24D0FFE51024FA50030206B3E51075F003A49006027302068F
:200604001402063A0206590206750206890206A5EF24FD5001228F06EE75F00AA4FEAD0898
:2006240075F00AED84E5F02EF50824E840030206B37508148079AE0875F00AEE84FEBE02ED
:2006440006EF24FC500122EE75F00AA4FE8F05ED2EF508805AEF24FA5001228F06EE75F021
:200664000AA4FEAD0975F00AED84E5F02EF509803EAE0975F00AEE8475F00AA4FE8F05ED4B
:200684002EF509802AEF24FA5001228F06EE75F00AA4FEAD0A75F00AED84E5F02EF50A8053
:2006A4000EAE0A75F00AEE8475F00AA42FF50A1202EB7405B510047E008008AD100DEDFE52
:2006C4003395E08E10020333AF82BF2A15E51070047D058008AC101CECFD3395E08D1002EE
:2006E4000333BF23167405B510047D008008AC100CECFD3395E08D10020333BF300040051F
:20070400EF24C6500122EF24D0FF850D12850C82C007120357AE82D007E51024FA5003024E
:200724000853E51075F003A4900730730207420207720207920207D6020809020832EF247D
:20074400FC5001228F05ED75F00AA4FDAC0B75F00AEC84E5F02DF50BC394015003750B01D1
:20076400C3EE950B40030208538E0B020853AD0B75F00AED8475F00AA4FD8F04EC2DFDBD80
:2007840001004004EE9D5001228D0B020853EF24FE5001228F06EE75F00AA4FEAD0C75F0E7
:2007A4000AED84E5F02EF50CC394015003750C01E50C24F35003750C0C850D12850C8212D8
:2007C4000357AE82C3EE950B40030208538E0B020853AE0C75F00AEE8475F00AA4FE8F0564
:2007E400ED2EFEBE01004005EE24F35001228E0C850D12850C82120357AE82C3EE950B50D2
:200804004E8E0B804A8F06EE75F00AA4FEAD0D75F00AED84E5F02EF50D850D12850C821227
:200824000357AE82C3EE950B50258E0B8021AE0D75F00AEE8475F00AA42FF50D850D128521
:200844000C82120357AF82C3EF950B50028F0B12030F7405B510047E008008AD100DEDFE0A
:200864003395E08E10020333750800750900750A00750B01750C01750D00750E00750F00F0
:20088400751000751100D200D2012212086C7580FFD2B2D2B31202DF1202EB12030FE5897B
:2008A40054F04401F589758CD8758A00D2A9D28CD288D28AD2A8D2AAD2AF300009E50F70B2
:2008C40005C2001202EB300109E50F7005C20112030F7401B50F0280057402B50FDC1205D7
:2008E40074E51160D57401B50F088511821205AD80068511821206CC75110080BD000103EF
:09090400040607000103040607C4
:0600B500E478FFF6D8FD1F
:200093007900E94400601B7A0090090D780175A000E493F2A308B8000205A0D9F4DAF275FD
:0200B300A0FFAC
:20005C00C000A88118C0D0B6001B18B618004015B63F005010C0E0E65407B406005004E6BD
:0A007C0054F8F6D0E0D0D0D00032E6
:2000BB007800E84400600A790175A000E4F309D8FC7800E84400600C7900900001E4F0A343
:0400DB00D8FCD9FA7A
:0D008600758121120104E58260030200591A
:00000001FF
